:060000000A128A110E280D
:10000800FE00030EF6000408F7000A08F8000A12BA
:100018008A1195290A128A111128F901FA01831205
:100028000313B001B101B201B30183010A128A11AD
:10003800C32983120313A601A11F232824282B28D0
:10004800A009A109A00A0319A10AA601A60AA31FCB
:100058002E282F283828A209A309A20A0319A30ABF
:100068000130A4002408A606A701A801200821043D
:1000780003193F2840287728A501A50A4E280130F2
:100088000310A00DA10DFF3E031D44280130A4005C
:100098002408A507A11F512852284328013003101E
:1000A800A70DA80DFF3E031D532821082302031D99
:1000B8005F2820082202031C622863286A28200877
:1000C800A2022108031CA303A30227140130031072
:1000D800A10CA00CFF3E031D6B280130A502031DD7
:1000E800762877285228260803197B287C28812817
:1000F800A709A809A70A0319A80A2808A100270818
:10010800A000080083120313AD002D08AA002A08D6
:10011800AE006430A0000030A1002E08AA00AB0198
:100128002A08A2002B08A3000A128A111D200A120D
:100138008A11831203132008AC002908023E8400A8
:100148002C08831380006430AA002A08A00029081C
:10015800023E840000080A128A11EB210A128A1151
:1001680083120313AB002B08AE020A30A000003044
:10017800A1002E08AA00AB012A08A2002B08A300A0
:100188000A128A111D200A128A11831203132008E9
:10019800AC00290A84002C08831380000A30AA00C6
:1001A8002A08A000290A840000080A128A11EB21F3
:1001B8000A128A1183120313AB002B08AE022E0811
:1001C800AA00290884002A08831380000800F20086
:1001D80023293F308312031387004B2906308312EB
:1001E800031387004B295B308312031387004B29C5
:1001F8004F308312031387004B2966308312031391
:1002080087004B296D308312031387004B297D30FB
:100218008312031387004B290730831203138700C7
:100228004B297F308312031387004B296F308312C9
:10023800031387004B298312031387014B29720884
:10024800F000F1017108003A03192B291F297008E1
:10025800003A0319ED28013A0319F228033A031961
:10026800F728013A0319FC28073A03190129013A2A
:1002780003190629033A03190B29013A031910290E
:100288000F3A03191529013A03191A291F290800D9
:10029800043079020318512952295F297908031D6E
:1002A800562957295C290130F3007308F907812979
:1002B8000310F90D8129F901F90A81298312031321
:1002C80031080A128A11EB200A128A11790883125E
:1002D8000313880094298312031332080A128A111F
:1002E800EB200A128A116A298312031333080A12AF
:1002F8008A11EB200A128A116A297908F300F4019D
:100308007408003A0319892994297308013A0319D2
:100318006229033A03196F29063A0319782994299F
:1003280008000B1C98299929AB2983120313061C72
:100338009E299F29A4290130F5007508B007AA292C
:10034800861CA729A829AA290130B0020B100B1D69
:10035800AE29AF29BA29EC30831203138100880132
:100368000A128A114C210A128A110B1178088A0084
:1003780077088400760E8300FE0E7E0E09000A12AE
:100388008A1102220A128A110A128A112C220A12CE
:100398008A110A128A1124220A128A110A128A114F
:1003A80017220A128A11313083120313AF002F0863
:1003B800A90030080A128A1186200A128A118312AB
:1003C800031330088500D7290A128A110E288312D0
:1003D8000313A300A201231CF229F329F7292008FB
:1003E800A1002108A2070310A00D0310A30C2308E5
:1003F800031DFF29002AEF29220808008316031786
:100408008801890183160313850187018801890101
:1004180003308600831203138501870189010130A7
:1004280088008601080083160313811281110115C3
:10043800811401140B11EC3083120313810008009E
:10044800831603130F088F3960388F000F140800C4
:0E045800A8308B0003308316031396000800B3
:08400000FF3FFF3FFF3FFF3FC0
:04400E00D420FF3F7C
:00000001FF
